:03000000020800F3
:0C080000787FE4F6D8FD758109020847F6
:03093F000108FFAD
:08092D007F027E27DEFEDFFCE5
:01093500229F
:080936007F0C7EA9DEFEDFFC50
:01093E002296
:0E091100AD07AF051DEF600512093680F52217
:0E091F00AD07AF051DEF600512092D80F52212
:10088C007509FFE5A0B40F037FFF22E5A0540F24E8
:10089C00F9601A24FC601124FE6008147014E4F54D
:1008AC00098012750901800D75090280087509030C
:1008BC0080037FFF22E5A054F02490601624C060D2
:1008CC000E24E0600624F070128013740480067409
:1008DC00088002740C2509F50980037FFF22AF09FB
:0108EC0022E9
:1008ED007590FF12088C8F08E508F46010E4F59000
:1008FD007FF41209117590FF7FF41209117F0A120E
:04090D00091180DF6D
:10080C000208EDE493A3F8E493A34003F68001F20D
:10081C0008DFF48029E493A3F85407240CC8C333ED
:10082C00C4540F4420C8834004F456800146F6DFBC
:10083C00E4800B010204081020408090093FE47E04
:10084C00019360BCA3FF543F30E509541FFEE493B1
:10085C00A360010ECF54C025E060A840B8E493A378
:10086C00FAE493A3F8E493A3C8C582C8CAC583CAA3
:10087C00F0A3C8C582C8CAC583CADFE9DEE780BE5B
:0109420000B4
:00000001FF
