:030000000209EF03
:0C09EF00787FE4F6D8FD75811102098ABA
:0809FB000100010001000100F0
:1009D700E4FDFCC3ED9FEE6480F8EC64809850075B
:0709E7000DBD00010C80ECC6
:0109EE0022E6
:10093C001208F624FF929090000112090F24FF92E6
:10094C009190000212090F24FF9292900003120959
:10095C000F24FF929390000412090F24FF9294909D
:10096C00000512090F24FF929590000612090F241E
:0E097C00FF929690000712090F24FF92972217
:10098A0078087C007D007BFF7A0979FB7E007F086E
:10099A001208D07B007A00790812093CE4F510F5B8
:1009AA001174082511F8E670047F0180027F00A601
:1009BA00077F887E131209D70511E5117002051009
:0D09CA00C39408E5106480948040D680C678
:10080000E709F608DFFA8046E709F208DFFA803EDA
:1008100088828C83E709F0A3DFFA8032E309F608C7
:10082000DFFA8078E309F208DFFA807088828C832F
:10083000E309F0A3DFFA806489828A83E0A3F608E3
:10084000DFFA805889828A83E0A3F208DFFA804CBD
:1008500080D280FA80C680D4806980F28033801094
:1008600080A680EA809A80A880DA80E280CA8033FD
:1008700089828A83ECFAE493A3C8C582C8CCC58375
:10088000CCF0A3C8C582C8CCC583CCDFE9DEE78045
:100890000D89828A83E493A3F608DFF9ECFAA9F0C4
:1008A000EDFB2289828A83ECFAE0A3C8C582C8CC1A
:1008B000C583CCF0A3C8C582C8CCC583CCDFEADE33
:1008C000E880DB89828A83E493A3F208DFF980CC95
:1008D00088F0EF60010E4E60C388F0ED2402B4048E
:1008E0000050B9F582EB2402B4040050AF23234535
:0608F00082239008507302
:1008F600BB010689828A83E0225002E722BBFE0200
:09090600E32289828A83E4932232
:10090F00BB010CE58229F582E5833AF583E022509D
:10091F0006E92582F8E622BBFE06E92582F8E222E7
:0D092F00E58229F582E5833AF583E4932201
:00000001FF
