:100800007590FEE4F508F5097F647E00120855E551
:100810009025E04401F5900509E50970020508C33B
:100820009407E5086480948040DEE4F508F509C388
:10083000E5099407E5086480948050C77F647E00D2
:10084000120855E590C3134480F5900509E5097039
:05085000DE050880DA5E
:10085500E4FDFCD3ED9FEE6480F8EC6480985015C0
:10086500E4FBFA0BBB00010AEB64914A70F50DBD80
:0508750000010C80DE13
:01087A00225B
:0300000002087B78
:0C087B00787FE4F6D8FD758109020800C2
:00000001FF
